{
  "contractName": "TimeLockJournal",
  "abi": [
    {
      "anonymous": false,
      "inputs": [
        {
          "indexed": false,
          "internalType": "uint256",
          "name": "entryId",
          "type": "uint256"
        },
        {
          "indexed": false,
          "internalType": "address",
          "name": "author",
          "type": "address"
        },
        {
          "indexed": false,
          "internalType": "uint256",
          "name": "unlockTime",
          "type": "uint256"
        }
      ],
      "name": "EntryCreated",
      "type": "event"
    },
    {
      "anonymous": false,
      "inputs": [
        {
          "indexed": false,
          "internalType": "uint256",
          "name": "entryId",
          "type": "uint256"
        },
        {
          "indexed": false,
          "internalType": "address",
          "name": "recipient",
          "type": "address"
        }
      ],
      "name": "EntryShared",
      "type": "event"
    },
    {
      "anonymous": false,
      "inputs": [
        {
          "indexed": false,
          "internalType": "uint256",
          "name": "entryId",
          "type": "uint256"
        },
        {
          "indexed": false,
          "internalType": "address",
          "name": "reader",
          "type": "address"
        }
      ],
      "name": "EntryUnlocked",
      "type": "event"
    },
    {
      "inputs": [
        {
          "internalType": "uint256",
          "name": "",
          "type": "uint256"
        }
      ],
      "name": "entries",
      "outputs": [
        {
          "internalType": "address",
          "name": "author",
          "type": "address"
        },
        {
          "internalType": "bytes32",
          "name": "encryptedContent",
          "type": "bytes32"
        },
        {
          "internalType": "uint256",
          "name": "unlockTime",
          "type": "uint256"
        },
        {
          "internalType": "bool",
          "name": "isUnlocked",
          "type": "bool"
        },
        {
          "internalType": "bool",
          "name": "exists",
          "type": "bool"
        }
      ],
      "stateMutability": "view",
      "type": "function",
      "constant": true
    },
    {
      "inputs": [
        {
          "internalType": "uint256",
          "name": "",
          "type": "uint256"
        },
        {
          "internalType": "address",
          "name": "",
          "type": "address"
        }
      ],
      "name": "sharedEntries",
      "outputs": [
        {
          "internalType": "bool",
          "name": "",
          "type": "bool"
        }
      ],
      "stateMutability": "view",
      "type": "function",
      "constant": true
    },
    {
      "inputs": [
        {
          "internalType": "address",
          "name": "",
          "type": "address"
        },
        {
          "internalType": "uint256",
          "name": "",
          "type": "uint256"
        }
      ],
      "name": "userEntries",
      "outputs": [
        {
          "internalType": "uint256",
          "name": "",
          "type": "uint256"
        }
      ],
      "stateMutability": "view",
      "type": "function",
      "constant": true
    },
    {
      "inputs": [
        {
          "internalType": "bytes32",
          "name": "_encryptedContent",
          "type": "bytes32"
        },
        {
          "internalType": "uint256",
          "name": "_unlockTime",
          "type": "uint256"
        }
      ],
      "name": "writeEntry",
      "outputs": [],
      "stateMutability": "nonpayable",
      "type": "function"
    },
    {
      "inputs": [],
      "name": "getMyEntries",
      "outputs": [
        {
          "internalType": "uint256[]",
          "name": "",
          "type": "uint256[]"
        }
      ],
      "stateMutability": "view",
      "type": "function",
      "constant": true
    },
    {
      "inputs": [
        {
          "internalType": "uint256",
          "name": "_entryId",
          "type": "uint256"
        }
      ],
      "name": "readEntry",
      "outputs": [
        {
          "internalType": "bytes32",
          "name": "",
          "type": "bytes32"
        }
      ],
      "stateMutability": "view",
      "type": "function",
      "constant": true
    },
    {
      "inputs": [
        {
          "internalType": "uint256",
          "name": "_entryId",
          "type": "uint256"
        },
        {
          "internalType": "address",
          "name": "_recipient",
          "type": "address"
        }
      ],
      "name": "shareEntry",
      "outputs": [],
      "stateMutability": "nonpayable",
      "type": "function"
    },
    {
      "inputs": [
        {
          "internalType": "uint256",
          "name": "_entryId",
          "type": "uint256"
        }
      ],
      "name": "getEntryDetails",
      "outputs": [
        {
          "internalType": "address",
          "name": "author",
          "type": "address"
        },
        {
          "internalType": "uint256",
          "name": "unlockTime",
          "type": "uint256"
        },
        {
          "internalType": "bool",
          "name": "isUnlocked",
          "type": "bool"
        },
        {
          "internalType": "bool",
          "name": "canRead",
          "type": "bool"
        }
      ],
      "stateMutability": "view",
      "type": "function",
      "constant": true
    }
  ],
  "bytecode": "0x608060405234801561001057600080fd5b506111bf806100206000396000f3fe608060405234801561001057600080fd5b50600436106100885760003560e01c806363fcf0331161005b57806363fcf033146101275780637852e158146101575780637b81067514610173578063b30906d4146101a657610088565b80630b913af01461008d57806313191a6e146100bd5780631949c2d1146100db5780635120abdb146100f7575b600080fd5b6100a760048036038101906100a29190610afb565b6101da565b6040516100b49190610fb5565b60405180910390f35b6100c561020b565b6040516100d29190610ebd565b60405180910390f35b6100f560048036038101906100f09190610b9c565b6102a0565b005b610111600480360381019061010c9190610b73565b61044b565b60405161011e9190610efa565b60405180910390f35b610141600480360381019061013c9190610b9c565b61062c565b60405161014e9190610edf565b60405180910390f35b610171600480360381019061016c9190610b37565b61065b565b005b61018d60048036038101906101889190610b73565b610853565b60405161019d9493929190610e78565b60405180910390f35b6101c060048036038101906101bb9190610b73565b610a4c565b6040516101d1959493929190610e25565b60405180910390f35b600160205281600052604060002081815481106101f657600080fd5b90600052602060002001600091509150505481565b6060600160003373ffffffffffffffffffffffffffffffffffffffff1673ffffffffffffffffffffffffffffffffffffffff16815260200190815260200160002080548060200260200160405190810160405280929190818152602001828054801561029657602002820191906000526020600020905b815481526020019060010190808311610282575b5050505050905090565b60008083815260200190815260200160002060030160019054906101000a900460ff16610302576040517f08c379a00000000000000000000000000000000000000000000000000000000081526004016102f990610f55565b60405180910390fd5b3373ffffffffffffffffffffffffffffffffffffffff1660008084815260200190815260200160002060000160009054906101000a900473ffffffffffffffffffffffffffffffffffffffff1673ffffffffffffffffffffffffffffffffffffffff16146103a5576040517f08c379a000000000000000000000000000000000000000000000000000000000815260040161039c90610f95565b60405180910390fd5b60016002600084815260200190815260200160002060008373ffffffffffffffffffffffffffffffffffffffff1673ffffffffffffffffffffffffffffffffffffffff16815260200190815260200160002060006101000a81548160ff0219169083151502179055507fc2731ca54231edae5f9547e17bf46dc7d3493d21c233d987ea8e00771358bef7828260405161043f929190610fd0565b60405180910390a15050565b600080600083815260200190815260200160002060030160019054906101000a900460ff166104af576040517f08c379a00000000000000000000000000000000000000000000000000000000081526004016104a690610f55565b60405180910390fd5b3373ffffffffffffffffffffffffffffffffffffffff1660008084815260200190815260200160002060000160009054906101000a900473ffffffffffffffffffffffffffffffffffffffff1673ffffffffffffffffffffffffffffffffffffffff16148061057857506002600083815260200190815260200160002060003373ffffffffffffffffffffffffffffffffffffffff1673ffffffffffffffffffffffffffffffffffffffff16815260200190815260200160002060009054906101000a900460ff165b6105b7576040517f08c379a00000000000000000000000000000000000000000000000000000000081526004016105ae90610f15565b60405180910390fd5b6000808381526020019081526020016000206002015442101561060f576040517f08c379a000000000000000000000000000000000000000000000000000000000815260040161060690610f75565b60405180910390fd5b600080838152602001908152602001600020600101549050919050565b60026020528160005260406000206020528060005260406000206000915091509054906101000a900460ff1681565b42811161069d576040517f08c379a000000000000000000000000000000000000000000000000000000000815260040161069490610f35565b60405180910390fd5b600360008154809291906106b0906110cc565b91905055506040518060a001604052803373ffffffffffffffffffffffffffffffffffffffff16815260200183815260200182815260200160001515815260200160011515815250600080600354815260200190815260200160002060008201518160000160006101000a81548173ffffffffffffffffffffffffffffffffffffffff021916908373ffffffffffffffffffffffffffffffffffffffff160217905550602082015181600101556040820151816002015560608201518160030160006101000a81548160ff02191690831515021790555060808201518160030160016101000a81548160ff021916908315150217905550905050600160003373ffffffffffffffffffffffffffffffffffffffff1673ffffffffffffffffffffffffffffffffffffffff16815260200190815260200160002060035490806001815401808255809150506001900390600052602060002001600090919091909150557f92bfaa3df79bf7a7d1ede38132a1a395d2c9b2ac6b719002d905c55d81c01b7f600354338360405161084793929190610ff9565b60405180910390a15050565b60008060008060008086815260200190815260200160002060030160019054906101000a900460ff166108bb576040517f08c379a00000000000000000000000000000000000000000000000000000000081526004016108b290610f55565b60405180910390fd5b60008060008781526020019081526020016000206040518060a00160405290816000820160009054906101000a900473ffffffffffffffffffffffffffffffffffffffff1673ffffffffffffffffffffffffffffffffffffffff1673ffffffffffffffffffffffffffffffffffffffff16815260200160018201548152602001600282015481526020016003820160009054906101000a900460ff161515151581526020016003820160019054906101000a900460ff161515151581525050905060003373ffffffffffffffffffffffffffffffffffffffff16826000015173ffffffffffffffffffffffffffffffffffffffff161480610a1657506002600088815260200190815260200160002060003373ffffffffffffffffffffffffffffffffffffffff1673ffffffffffffffffffffffffffffffffffffffff16815260200190815260200160002060009054906101000a900460ff165b8015610a26575081604001514210155b905081600001518260400151836040015142101583955095509550955050509193509193565b60006020528060005260406000206000915090508060000160009054906101000a900473ffffffffffffffffffffffffffffffffffffffff16908060010154908060020154908060030160009054906101000a900460ff16908060030160019054906101000a900460ff16905085565b600081359050610acb81611144565b92915050565b600081359050610ae08161115b565b92915050565b600081359050610af581611172565b92915050565b60008060408385031215610b0e57600080fd5b6000610b1c85828601610abc565b9250506020610b2d85828601610ae6565b9150509250929050565b60008060408385031215610b4a57600080fd5b6000610b5885828601610ad1565b9250506020610b6985828601610ae6565b9150509250929050565b600060208284031215610b8557600080fd5b6000610b9384828501610ae6565b91505092915050565b60008060408385031215610baf57600080fd5b6000610bbd85828601610ae6565b9250506020610bce85828601610abc565b9150509250929050565b6000610be48383610e07565b60208301905092915050565b610bf98161107a565b82525050565b6000610c0a82611040565b610c148185611058565b9350610c1f83611030565b8060005b83811015610c50578151610c378882610bd8565b9750610c428361104b565b925050600181019050610c23565b5085935050505092915050565b610c668161108c565b82525050565b610c7581611098565b82525050565b6000610c88602183611069565b91507f4e6f7420617574686f72697a656420746f2072656164207468697320656e747260008301527f79000000000000000000000000000000000000000000000000000000000000006020830152604082019050919050565b6000610cee602183611069565b91507f556e6c6f636b2074696d65206d75737420626520696e2074686520667574757260008301527f65000000000000000000000000000000000000000000000000000000000000006020830152604082019050919050565b6000610d54601483611069565b91507f456e74727920646f6573206e6f742065786973740000000000000000000000006000830152602082019050919050565b6000610d94601583611069565b91507f456e747279206973207374696c6c206c6f636b656400000000000000000000006000830152602082019050919050565b6000610dd4601583611069565b91507f4f6e6c7920617574686f722063616e20736861726500000000000000000000006000830152602082019050919050565b610e10816110c2565b82525050565b610e1f816110c2565b82525050565b600060a082019050610e3a6000830188610bf0565b610e476020830187610c6c565b610e546040830186610e16565b610e616060830185610c5d565b610e6e6080830184610c5d565b9695505050505050565b6000608082019050610e8d6000830187610bf0565b610e9a6020830186610e16565b610ea76040830185610c5d565b610eb46060830184610c5d565b95945050505050565b60006020820190508181036000830152610ed78184610bff565b905092915050565b6000602082019050610ef46000830184610c5d565b92915050565b6000602082019050610f0f6000830184610c6c565b92915050565b60006020820190508181036000830152610f2e81610c7b565b9050919050565b60006020820190508181036000830152610f4e81610ce1565b9050919050565b60006020820190508181036000830152610f6e81610d47565b9050919050565b60006020820190508181036000830152610f8e81610d87565b9050919050565b60006020820190508181036000830152610fae81610dc7565b9050919050565b6000602082019050610fca6000830184610e16565b92915050565b6000604082019050610fe56000830185610e16565b610ff26020830184610bf0565b9392505050565b600060608201905061100e6000830186610e16565b61101b6020830185610bf0565b6110286040830184610e16565b949350505050565b6000819050602082019050919050565b600081519050919050565b6000602082019050919050565b600082825260208201905092915050565b600082825260208201905092915050565b6000611085826110a2565b9050919050565b60008115159050919050565b6000819050919050565b600073ffffffffffffffffffffffffffffffffffffffff82169050919050565b6000819050919050565b60006110d7826110c2565b91507fffffffffffffffffffffffffffffffffffffffffffffffffffffffffffffffff82141561110a57611109611115565b5b600182019050919050565b7f4e487b7100000000000000000000000000000000000000000000000000000000600052601160045260246000fd5b61114d8161107a565b811461115857600080fd5b50565b61116481611098565b811461116f57600080fd5b50565b61117b816110c2565b811461118657600080fd5b5056fea2646970667358221220f1b23e25a4db5a37516915d926a7341fb753b6c9a80933b9baf0d946c664eace64736f6c63430008000033",
  "immutableReferences": {},
  "source": "// SPDX-License-Identifier: MIT\r\npragma solidity ^0.8.0;\r\n\r\ncontract TimeLockJournal {\r\n    struct JournalEntry {\r\n        address author;\r\n        bytes32 encryptedContent;\r\n        uint256 unlockTime;\r\n        bool isUnlocked;\r\n        bool exists;\r\n    }\r\n    \r\n    mapping(uint256 => JournalEntry) public entries;\r\n    mapping(address => uint256[]) public userEntries;\r\n    mapping(uint256 => mapping(address => bool)) public sharedEntries;\r\n    \r\n    uint256 private entryCounter;\r\n    \r\n    event EntryCreated(uint256 entryId, address author, uint256 unlockTime);\r\n    event EntryUnlocked(uint256 entryId, address reader);\r\n    event EntryShared(uint256 entryId, address recipient);\r\n    \r\n    function writeEntry(bytes32 _encryptedContent, uint256 _unlockTime) external {\r\n        require(_unlockTime > block.timestamp, \"Unlock time must be in the future\");\r\n        \r\n        entryCounter++;\r\n        entries[entryCounter] = JournalEntry({\r\n            author: msg.sender,\r\n            encryptedContent: _encryptedContent,\r\n            unlockTime: _unlockTime,\r\n            isUnlocked: false,\r\n            exists: true\r\n        });\r\n        \r\n        userEntries[msg.sender].push(entryCounter);\r\n        emit EntryCreated(entryCounter, msg.sender, _unlockTime);\r\n    }\r\n    \r\n    function getMyEntries() external view returns (uint256[] memory) {\r\n        return userEntries[msg.sender];\r\n    }\r\n    \r\n    function readEntry(uint256 _entryId) external view returns (bytes32) {\r\n        require(entries[_entryId].exists, \"Entry does not exist\");\r\n        require(\r\n            entries[_entryId].author == msg.sender || \r\n            sharedEntries[_entryId][msg.sender],\r\n            \"Not authorized to read this entry\"\r\n        );\r\n        require(\r\n            block.timestamp >= entries[_entryId].unlockTime,\r\n            \"Entry is still locked\"\r\n        );\r\n        \r\n        return entries[_entryId].encryptedContent;\r\n    }\r\n    \r\n    function shareEntry(uint256 _entryId, address _recipient) external {\r\n        require(entries[_entryId].exists, \"Entry does not exist\");\r\n        require(entries[_entryId].author == msg.sender, \"Only author can share\");\r\n        \r\n        sharedEntries[_entryId][_recipient] = true;\r\n        emit EntryShared(_entryId, _recipient);\r\n    }\r\n    \r\n    function getEntryDetails(uint256 _entryId) external view returns (\r\n        address author,\r\n        uint256 unlockTime,\r\n        bool isUnlocked,\r\n        bool canRead\r\n    ) {\r\n        require(entries[_entryId].exists, \"Entry does not exist\");\r\n        \r\n        JournalEntry memory entry = entries[_entryId];\r\n        bool readable = (entry.author == msg.sender || sharedEntries[_entryId][msg.sender]) &&\r\n                       block.timestamp >= entry.unlockTime;\r\n        \r\n        return (\r\n            entry.author,\r\n            entry.unlockTime,\r\n            block.timestamp >= entry.unlockTime,\r\n            readable\r\n        );\r\n    }\r\n}",
  "sourcePath": "C:\\Users\\hp\\Desktop\\Assignment3_laiba\\contracts\\timejournal.sol",
  "compiler": {
    "name": "solc",
    "version": "0.8.0+commit.c7dfd78e.Emscripten.clang"
  },
  "schemaVersion": "3.4.16",
  "updatedAt": "2025-11-23T15:51:22.445Z",
  "networkType": "ethereum",
  "devdoc": {
    "kind": "dev",
    "methods": {},
    "version": 1
  },
  "userdoc": {
    "kind": "user",
    "methods": {},
    "version": 1
  }
}